:100000000C9462000C948A000C948A000C948A0070
:100010000C948A000C948A000C948A000C948A0038
:100020000C948A000C948A000C948A000C948A0028
:100030000C948A000C948A000C948A000C948A0018
:100040000C942C030C948A000C948A000C948A0063
:100050000C948A000C948A000C948A000C948A00F8
:100060000C948A000C948A000000000024002700F1
:100070002A0000000000250028002B0000000000DE
:1000800023002600290004040404040404040202DA
:100090000202020203030303030301020408102007
:1000A0004080010204081020010204081020000012
:1000B0000008000201000003040700000000000027
:1000C0000000A60411241FBECFEFD8E0DEBFCDBFD5
:1000D00011E0A0E0B1E0E8E9F9E002C005900D927E
:1000E000AA38B107D9F721E0AAE8B1E001C01D9212
:1000F000AB3AB207E1F710E0C2E6D0E004C02197C6
:10010000FE010E94C404C136D107C9F70E947603DC
:100110000C94CA040C940000AF92BF92CF92DF926D
:10012000EF92FF920F931F93CF93DF936C017B01AC
:100130008B01040F151FEB015E01AE18BF08C0173D
:10014000D10759F06991D601ED91FC910190F081B0
:10015000E02DC6010995892B79F7C501DF91CF9173
:100160001F910F91FF90EF90DF90CF90BF90AF90D5
:100170000895833081F028F4813099F08230A9F01D
:1001800008958730A9F08830C9F08430B1F48091A7
:1001900080008F7D03C0809180008F7780938000E6
:1001A000089584B58F7784BD089584B58F7DFBCF86
:1001B0008091B0008F778093B00008958091B00057
:1001C0008F7DF9CFCF93DF93282F30E0F901E255EF
:1001D000FF4F8491F901E656FF4FD491F901EA5798
:1001E000FF4FC491CC23A1F081110E94B900EC2FE4
:1001F000F0E0EE0FFF1FE458FF4FA591B491EC9192
:10020000ED2381E090E009F480E0DF91CF91089543
:1002100080E090E0FACF1F93CF93DF93282F30E058
:10022000F901E255FF4F8491F901E656FF4FD49151
:10023000F901EA57FF4FC491CC23A9F0162F811181
:100240000E94B900EC2FF0E0EE0FFF1FEE58FF4FB9
:10025000A591B4918FB7F894EC91111108C0D09585
:10026000DE23DC938FBFDF91CF911F910895DE2BAA
:10027000F8CFCF93DF9390E0FC01E656FF4F249137
:100280008A579F4FFC0184918823D1F090E0880F1A
:10029000991FFC01E859FF4FA591B491FC01EE585C
:1002A000FF4FC591D49161110EC09FB7F8948C9106
:1002B000E22FE0958E238C932881E223E8839FBF71
:1002C000DF91CF9108958FB7F894EC91E22BEC93E6
:1002D0008FBFF6CF3FB7F89480918F019091900136
:1002E000A0919101B091920126B5A89B05C02F3F26
:1002F00019F00196A11DB11D3FBFBA2FA92F982F4C
:100300008827BC01CD01620F711D811D911D42E046
:10031000660F771F881F991F4A95D1F708958F920E
:100320009F92AF92BF92CF92DF92EF92FF924B01DA
:100330005C010E946A016B017C010E946A016C19D8
:100340007D098E099F09683E734081059105A8F3D8
:1003500021E0821A9108A108B10888EEC80E83E056
:10036000D81EE11CF11C81149104A104B10429F7E9
:10037000FF90EF90DF90CF90BF90AF909F908F90C5
:100380000895089590E080E00895FC010190002018
:10039000E9F73197AF01481B590BBC0183E991E0A4
:1003A0000C948C00CF93DF93EC0160E08E810E946F
:1003B0000B0161E08E810E940B0160E08E810E9442
:1003C0000B018BE891E00197F1F7DF91CF91089550
:1003D000CF92DF92EF92FF920F931F93CF93DF9311
:1003E0006C017C0187E0E80EF11CD0E0C0E0062F34
:1003F00010E0B8010C2E02C0759567950A94E2F7DB
:100400006170F70181917F010E940B012196C43038
:10041000D10579F7C601DF91CF911F910F91FF9020
:10042000EF90DF90CF900C94D201CF92DF92EF92B9
:10043000FF920F931F93CF93DF93EC01F62E642F5F
:100440008C810E940B018D818F3F19F060E00E942A
:100450000B010F2D10E08F8584FF25C06E0187E012
:10046000C80ED11CF12CE12CB8010E2C02C07595E0
:1004700067950A94E2F76170F60181916F010E941D
:100480000B01FFEFEF1AFF0A88E0E816F10461F7AD
:10049000CE01DF91CF911F910F91FF90EF90DF90F0
:1004A000CF900C94D201B80184E0759567958A9538
:1004B000E1F7CE010E94E8016F2DCE01DF91CF91CF
:1004C0001F910F91FF90EF90DF90CF900C94E80177
:1004D00040E0682F83E991E00C94150281E00E94CE
:1004E00068028BE39FE10197F1F70895CF93DF93C3
:1004F000823029F49091A20198609093A201809398
:10050000A6011092A70180E48093A80180E1809366
:10051000A90180E58093AA0161E0809197010E9482
:100520003901809198018F3F19F061E00E943901F3
:1005300061E0809199010E943901C3E9D1E09E01F7
:10054000235931408091A20184FD0BC084E090E0EA
:1005500021962817390744F461E08E810E94390101
:10056000EECF88E090E0F4CF8BE39DE00197F1F7C8
:1005700060E0809197010E940B0160E080919901F9
:100580000E940B01809198018F3F19F060E00E945A
:100590000B018091A20184FD34C063E083E991E006
:1005A0000E94E801CBE4D6E4CE010197F1F763E0C5
:1005B00083E991E00E94E8012197F1F763E083E984
:1005C00091E00E94E80183E592E00197F1F762E093
:1005D00083E991E00E94E8018091A20180620E947B
:1005E000680284E08093A3018CE00E9468020E946C
:1005F0006E0282E08093A40186E0DF91CF910C949B
:10060000680280620E9468028BE496E40197F1F729
:100610008091A20180620E94680283E592E00197C6
:10062000F1F78091A20180620E946802D5CF90917B
:10063000A601691710F06FEF690FE62FF0E0ED5695
:10064000FE4F9489890F80680C94680241E00E94F3
:10065000150281E090E008951F920F920FB60F925D
:1006600011242F933F938F939F93AF93BF938091C8
:100670008B0190918C01A0918D01B0918E013091F0
:100680008A0123E0230F2D3758F50196A11DB11DD6
:1006900020938A0180938B0190938C01A0938D010C
:1006A000B0938E0180918F0190919001A091910162
:1006B000B09192010196A11DB11D80938F0190937D
:1006C0009001A0939101B0939201BF91AF919F913E
:1006D0008F913F912F910F900FBE0F901F90189503
:1006E00026E8230F0296A11DB11DD2CF789484B5C0
:1006F000826084BD84B5816084BD85B5826085BD1E
:1007000085B5816085BD80916E00816080936E00AB
:10071000109281008091810082608093810080919D
:10072000810081608093810080918000816080934E
:1007300080008091B10084608093B1008091B0000E
:1007400081608093B00080917A00846080937A0009
:1007500080917A00826080937A0080917A00816033
:1007600080937A0080917A00806880937A0010925A
:10077000C10060E088E00E94390160E089E00E94E9
:10078000390161E08AE00E94390161E086E00E945F
:10079000390161E08DE00E94390182E00E94760219
:1007A00080E40E946802C8E0D1E000E111E06991B4
:1007B00083E991E00E9426030C171D07C1F788E426
:1007C0000E946802C0E0D1E0699183E991E00E9453
:1007D000260381E0C830D807B9F760E080E00E94C6
:1007E00017038CE191E00E94C50161E080E00E9466
:1007F00017038CE291E00E94C50160ED77E080E094
:1008000090E00E948F010E946E0200E010E088E0FC
:100810000E94E200EC0189E00E94E200C130D105B3
:1008200009F05AC0009709F075C061E08AE00E94A3
:100830000B0160E086E00E940B010E946E0260E006
:1008400080E00E9417038DE391E00E94C50161E002
:1008500080E00E9417038FE491E00E94C50161E0EF
:100860008DE00E940B0160E08AE00E940B0160E0D5
:1008700086E00E940B010E946E0260E080E00E9410
:1008800017038DE391E00E94C50161E084E00E94BE
:10089000170360E083E991E00E94260361E080E0B5
:1008A0000E9417038FE791E00E94C50161E08DE08F
:1008B0000E94170361E083E991E00E94260368EE3D
:1008C00073E080E090E00E948F010115110509F4AA
:1008D0009ECF0E9400009BCFCD2B09F6019709F017
:1008E000BECF60E08AE00E940B0161E086E00E94DA
:1008F0000B010E946E0260E080E00E9417038DE30E
:1009000091E00E94C50161E080E00E9417038FE53D
:1009100091E0A3CF019709F0A2CF61E08AE00E94A5
:100920000B0161E086E00E940B010E946E0260E014
:1009300080E00E9417038DE391E00E94C50161E011
:1009400080E00E9417038FE691E087CFE3E9F1E0B2
:100950001382128284E191E09183808387E0848313
:100960008FEF858386E0868385E0878384E08087B8
:1009700083E0818782E08287138614861586168637
:10098000178681E00C947602EE0FFF1F0590F4911C
:08099000E02D0994F894FFCF5B
:10099800101010190F070F1F010101131E1C1E1F35
:1009A8000000000026038C00C201C1014155544FCC
:1009B8004D4154494320574154455200202020209E
:1009C80044495350454E53455220202000486F74E7
:1009D800207461707C7C636F6C642074617000208B
:1009E800204F4E2020207C7C20204F46462000208F
:1009F800204F464620207C7C20204F4E202000207F
:100A0800204F4E2020207C7C20204F4E202000208C
:0A0A18002020202020207C7C00001C
:00000001FF
